{
  "contractName": "InventoryPayment",
  "abi": [
    {
      "anonymous": false,
      "inputs": [
        {
          "indexed": true,
          "internalType": "uint256",
          "name": "bankId",
          "type": "uint256"
        }
      ],
      "name": "BankAdded",
      "type": "event"
    },
    {
      "anonymous": false,
      "inputs": [
        {
          "indexed": true,
          "internalType": "uint256",
          "name": "bankId",
          "type": "uint256"
        }
      ],
      "name": "BankDeleted",
      "type": "event"
    },
    {
      "anonymous": false,
      "inputs": [
        {
          "indexed": true,
          "internalType": "uint256",
          "name": "bankId",
          "type": "uint256"
        }
      ],
      "name": "BankUpdated",
      "type": "event"
    },
    {
      "anonymous": false,
      "inputs": [
        {
          "indexed": false,
          "internalType": "string",
          "name": "message",
          "type": "string"
        }
      ],
      "name": "LogDebugMessage",
      "type": "event"
    },
    {
      "anonymous": false,
      "inputs": [
        {
          "indexed": false,
          "internalType": "string",
          "name": "message",
          "type": "string"
        }
      ],
      "name": "LogOrderStatus",
      "type": "event"
    },
    {
      "anonymous": false,
      "inputs": [
        {
          "indexed": true,
          "internalType": "uint256",
          "name": "orderNo",
          "type": "uint256"
        },
        {
          "indexed": true,
          "internalType": "address",
          "name": "user",
          "type": "address"
        }
      ],
      "name": "OrderPlaced",
      "type": "event"
    },
    {
      "anonymous": false,
      "inputs": [
        {
          "indexed": true,
          "internalType": "uint256",
          "name": "orderNo",
          "type": "uint256"
        },
        {
          "indexed": true,
          "internalType": "address",
          "name": "supplier",
          "type": "address"
        },
        {
          "indexed": false,
          "internalType": "uint256",
          "name": "amount",
          "type": "uint256"
        }
      ],
      "name": "PaymentSent",
      "type": "event"
    },
    {
      "anonymous": false,
      "inputs": [
        {
          "indexed": true,
          "internalType": "uint256",
          "name": "productId",
          "type": "uint256"
        }
      ],
      "name": "ProductAdded",
      "type": "event"
    },
    {
      "anonymous": false,
      "inputs": [
        {
          "indexed": true,
          "internalType": "uint256",
          "name": "productId",
          "type": "uint256"
        }
      ],
      "name": "ProductDeleted",
      "type": "event"
    },
    {
      "anonymous": false,
      "inputs": [
        {
          "indexed": true,
          "internalType": "uint256",
          "name": "productId",
          "type": "uint256"
        }
      ],
      "name": "ProductUpdated",
      "type": "event"
    },
    {
      "anonymous": false,
      "inputs": [
        {
          "indexed": true,
          "internalType": "uint256",
          "name": "supId",
          "type": "uint256"
        }
      ],
      "name": "SupplierAdded",
      "type": "event"
    },
    {
      "anonymous": false,
      "inputs": [
        {
          "indexed": true,
          "internalType": "uint256",
          "name": "supId",
          "type": "uint256"
        }
      ],
      "name": "SupplierDeleted",
      "type": "event"
    },
    {
      "anonymous": false,
      "inputs": [
        {
          "indexed": true,
          "internalType": "uint256",
          "name": "supId",
          "type": "uint256"
        }
      ],
      "name": "SupplierUpdated",
      "type": "event"
    },
    {
      "inputs": [
        {
          "internalType": "uint256",
          "name": "",
          "type": "uint256"
        }
      ],
      "name": "activeProductIds",
      "outputs": [
        {
          "internalType": "uint256",
          "name": "",
          "type": "uint256"
        }
      ],
      "stateMutability": "view",
      "type": "function",
      "constant": true
    },
    {
      "inputs": [
        {
          "internalType": "uint256",
          "name": "",
          "type": "uint256"
        }
      ],
      "name": "activeSupplierIds",
      "outputs": [
        {
          "internalType": "uint256",
          "name": "",
          "type": "uint256"
        }
      ],
      "stateMutability": "view",
      "type": "function",
      "constant": true
    },
    {
      "inputs": [],
      "name": "bankCount",
      "outputs": [
        {
          "internalType": "uint256",
          "name": "",
          "type": "uint256"
        }
      ],
      "stateMutability": "view",
      "type": "function",
      "constant": true
    },
    {
      "inputs": [],
      "name": "orderCount",
      "outputs": [
        {
          "internalType": "uint256",
          "name": "",
          "type": "uint256"
        }
      ],
      "stateMutability": "view",
      "type": "function",
      "constant": true
    },
    {
      "inputs": [],
      "name": "productCount",
      "outputs": [
        {
          "internalType": "uint256",
          "name": "",
          "type": "uint256"
        }
      ],
      "stateMutability": "view",
      "type": "function",
      "constant": true
    },
    {
      "inputs": [
        {
          "internalType": "uint256",
          "name": "",
          "type": "uint256"
        }
      ],
      "name": "products",
      "outputs": [
        {
          "internalType": "uint256",
          "name": "productId",
          "type": "uint256"
        },
        {
          "internalType": "string",
          "name": "productName",
          "type": "string"
        },
        {
          "internalType": "uint256",
          "name": "productPrice",
          "type": "uint256"
        },
        {
          "internalType": "uint256",
          "name": "productQty",
          "type": "uint256"
        }
      ],
      "stateMutability": "view",
      "type": "function",
      "constant": true
    },
    {
      "inputs": [
        {
          "internalType": "uint256",
          "name": "",
          "type": "uint256"
        }
      ],
      "name": "supplierBankDetails",
      "outputs": [
        {
          "internalType": "string",
          "name": "bankName",
          "type": "string"
        },
        {
          "internalType": "string",
          "name": "sortCode",
          "type": "string"
        },
        {
          "internalType": "uint256",
          "name": "accountNumber",
          "type": "uint256"
        }
      ],
      "stateMutability": "view",
      "type": "function",
      "constant": true
    },
    {
      "inputs": [],
      "name": "supplierCount",
      "outputs": [
        {
          "internalType": "uint256",
          "name": "",
          "type": "uint256"
        }
      ],
      "stateMutability": "view",
      "type": "function",
      "constant": true
    },
    {
      "inputs": [
        {
          "internalType": "uint256",
          "name": "",
          "type": "uint256"
        }
      ],
      "name": "suppliers",
      "outputs": [
        {
          "internalType": "uint256",
          "name": "supplierId",
          "type": "uint256"
        },
        {
          "internalType": "string",
          "name": "supplierName",
          "type": "string"
        },
        {
          "internalType": "string",
          "name": "supplierNumber",
          "type": "string"
        },
        {
          "components": [
            {
              "internalType": "string",
              "name": "bankName",
              "type": "string"
            },
            {
              "internalType": "string",
              "name": "sortCode",
              "type": "string"
            },
            {
              "internalType": "uint256",
              "name": "accountNumber",
              "type": "uint256"
            }
          ],
          "internalType": "struct InventoryPayment.SupplierBank",
          "name": "supplierBank",
          "type": "tuple"
        }
      ],
      "stateMutability": "view",
      "type": "function",
      "constant": true
    },
    {
      "inputs": [
        {
          "internalType": "uint256",
          "name": "",
          "type": "uint256"
        }
      ],
      "name": "userBankDetails",
      "outputs": [
        {
          "internalType": "uint256",
          "name": "id",
          "type": "uint256"
        },
        {
          "internalType": "string",
          "name": "bankName",
          "type": "string"
        },
        {
          "internalType": "uint256",
          "name": "bankAccountNumber",
          "type": "uint256"
        },
        {
          "internalType": "uint256",
          "name": "backupAmount",
          "type": "uint256"
        }
      ],
      "stateMutability": "view",
      "type": "function",
      "constant": true
    },
    {
      "inputs": [
        {
          "internalType": "address",
          "name": "",
          "type": "address"
        },
        {
          "internalType": "uint256",
          "name": "",
          "type": "uint256"
        }
      ],
      "name": "userOrders",
      "outputs": [
        {
          "internalType": "uint256",
          "name": "orderNo",
          "type": "uint256"
        },
        {
          "internalType": "uint256",
          "name": "orderDate",
          "type": "uint256"
        },
        {
          "internalType": "uint256",
          "name": "orderTotalAmount",
          "type": "uint256"
        },
        {
          "internalType": "string",
          "name": "orderStatus",
          "type": "string"
        },
        {
          "internalType": "uint256",
          "name": "supplierId",
          "type": "uint256"
        },
        {
          "internalType": "bool",
          "name": "isReceived",
          "type": "bool"
        }
      ],
      "stateMutability": "view",
      "type": "function",
      "constant": true
    },
    {
      "inputs": [
        {
          "internalType": "string",
          "name": "_supplierName",
          "type": "string"
        },
        {
          "internalType": "string",
          "name": "_supplierNumber",
          "type": "string"
        },
        {
          "internalType": "string",
          "name": "_bankName",
          "type": "string"
        },
        {
          "internalType": "string",
          "name": "_sortCode",
          "type": "string"
        },
        {
          "internalType": "uint256",
          "name": "_bankAccountNumber",
          "type": "uint256"
        }
      ],
      "name": "addSupplier",
      "outputs": [],
      "stateMutability": "nonpayable",
      "type": "function"
    },
    {
      "inputs": [],
      "name": "getAllSuppliersDetails",
      "outputs": [
        {
          "components": [
            {
              "internalType": "uint256",
              "name": "supplierId",
              "type": "uint256"
            },
            {
              "internalType": "string",
              "name": "supplierName",
              "type": "string"
            },
            {
              "internalType": "string",
              "name": "supplierNumber",
              "type": "string"
            },
            {
              "components": [
                {
                  "internalType": "string",
                  "name": "bankName",
                  "type": "string"
                },
                {
                  "internalType": "string",
                  "name": "sortCode",
                  "type": "string"
                },
                {
                  "internalType": "uint256",
                  "name": "accountNumber",
                  "type": "uint256"
                }
              ],
              "internalType": "struct InventoryPayment.SupplierBank",
              "name": "supplierBank",
              "type": "tuple"
            }
          ],
          "internalType": "struct InventoryPayment.Supplier[]",
          "name": "",
          "type": "tuple[]"
        }
      ],
      "stateMutability": "view",
      "type": "function",
      "constant": true
    },
    {
      "inputs": [
        {
          "internalType": "uint256",
          "name": "_supplierId",
          "type": "uint256"
        },
        {
          "internalType": "string",
          "name": "_newName",
          "type": "string"
        },
        {
          "internalType": "string",
          "name": "_newNumber",
          "type": "string"
        },
        {
          "internalType": "string",
          "name": "_newBankName",
          "type": "string"
        },
        {
          "internalType": "string",
          "name": "_newSortCode",
          "type": "string"
        },
        {
          "internalType": "uint256",
          "name": "_newAccountNumber",
          "type": "uint256"
        }
      ],
      "name": "updateSupplier",
      "outputs": [],
      "stateMutability": "nonpayable",
      "type": "function"
    },
    {
      "inputs": [
        {
          "internalType": "uint256",
          "name": "_supplierId",
          "type": "uint256"
        }
      ],
      "name": "deleteSupplier",
      "outputs": [],
      "stateMutability": "nonpayable",
      "type": "function"
    },
    {
      "inputs": [
        {
          "internalType": "uint256",
          "name": "_user",
          "type": "uint256"
        }
      ],
      "name": "getUserBankDetails",
      "outputs": [
        {
          "components": [
            {
              "internalType": "uint256",
              "name": "id",
              "type": "uint256"
            },
            {
              "internalType": "string",
              "name": "bankName",
              "type": "string"
            },
            {
              "internalType": "uint256",
              "name": "bankAccountNumber",
              "type": "uint256"
            },
            {
              "internalType": "uint256",
              "name": "backupAmount",
              "type": "uint256"
            }
          ],
          "internalType": "struct InventoryPayment.Bank",
          "name": "",
          "type": "tuple"
        }
      ],
      "stateMutability": "view",
      "type": "function",
      "constant": true
    },
    {
      "inputs": [
        {
          "internalType": "string",
          "name": "_bankName",
          "type": "string"
        },
        {
          "internalType": "uint256",
          "name": "_bankAccountNumber",
          "type": "uint256"
        },
        {
          "internalType": "uint256",
          "name": "_backupAmount",
          "type": "uint256"
        }
      ],
      "name": "addUserBankDetails",
      "outputs": [],
      "stateMutability": "nonpayable",
      "type": "function"
    },
    {
      "inputs": [],
      "name": "getBankDetails",
      "outputs": [
        {
          "components": [
            {
              "internalType": "uint256",
              "name": "id",
              "type": "uint256"
            },
            {
              "internalType": "string",
              "name": "bankName",
              "type": "string"
            },
            {
              "internalType": "uint256",
              "name": "bankAccountNumber",
              "type": "uint256"
            },
            {
              "internalType": "uint256",
              "name": "backupAmount",
              "type": "uint256"
            }
          ],
          "internalType": "struct InventoryPayment.Bank[]",
          "name": "",
          "type": "tuple[]"
        }
      ],
      "stateMutability": "view",
      "type": "function",
      "constant": true
    },
    {
      "inputs": [
        {
          "internalType": "uint256",
          "name": "_bankId",
          "type": "uint256"
        }
      ],
      "name": "viewBank",
      "outputs": [
        {
          "internalType": "string",
          "name": "bankName",
          "type": "string"
        },
        {
          "internalType": "uint256",
          "name": "bankNumber",
          "type": "uint256"
        },
        {
          "internalType": "uint256",
          "name": "bankAmout",
          "type": "uint256"
        }
      ],
      "stateMutability": "view",
      "type": "function",
      "constant": true
    },
    {
      "inputs": [
        {
          "internalType": "uint256",
          "name": "_bankId",
          "type": "uint256"
        },
        {
          "internalType": "string",
          "name": "_newName",
          "type": "string"
        },
        {
          "internalType": "uint256",
          "name": "_newAccountNumber",
          "type": "uint256"
        },
        {
          "internalType": "uint256",
          "name": "_newAmount",
          "type": "uint256"
        }
      ],
      "name": "updateBank",
      "outputs": [],
      "stateMutability": "nonpayable",
      "type": "function"
    },
    {
      "inputs": [
        {
          "internalType": "uint256",
          "name": "_bankId",
          "type": "uint256"
        }
      ],
      "name": "deleteBank",
      "outputs": [],
      "stateMutability": "nonpayable",
      "type": "function"
    },
    {
      "inputs": [
        {
          "internalType": "string",
          "name": "_productName",
          "type": "string"
        },
        {
          "internalType": "uint256",
          "name": "_productPrice",
          "type": "uint256"
        },
        {
          "internalType": "uint256",
          "name": "_productQty",
          "type": "uint256"
        }
      ],
      "name": "addProduct",
      "outputs": [],
      "stateMutability": "nonpayable",
      "type": "function"
    },
    {
      "inputs": [
        {
          "internalType": "uint256",
          "name": "_productId",
          "type": "uint256"
        }
      ],
      "name": "viewProduct",
      "outputs": [
        {
          "internalType": "string",
          "name": "productName",
          "type": "string"
        },
        {
          "internalType": "uint256",
          "name": "productPrice",
          "type": "uint256"
        },
        {
          "internalType": "uint256",
          "name": "productQty",
          "type": "uint256"
        }
      ],
      "stateMutability": "view",
      "type": "function",
      "constant": true
    },
    {
      "inputs": [
        {
          "internalType": "uint256",
          "name": "_productId",
          "type": "uint256"
        },
        {
          "internalType": "string",
          "name": "_newName",
          "type": "string"
        },
        {
          "internalType": "uint256",
          "name": "_newPrice",
          "type": "uint256"
        },
        {
          "internalType": "uint256",
          "name": "_newQty",
          "type": "uint256"
        }
      ],
      "name": "updateProduct",
      "outputs": [],
      "stateMutability": "nonpayable",
      "type": "function"
    },
    {
      "inputs": [
        {
          "internalType": "uint256",
          "name": "_productId",
          "type": "uint256"
        }
      ],
      "name": "deleteProduct",
      "outputs": [],
      "stateMutability": "nonpayable",
      "type": "function"
    },
    {
      "inputs": [],
      "name": "viewAllProducts",
      "outputs": [
        {
          "components": [
            {
              "internalType": "uint256",
              "name": "productId",
              "type": "uint256"
            },
            {
              "internalType": "string",
              "name": "productName",
              "type": "string"
            },
            {
              "internalType": "uint256",
              "name": "productPrice",
              "type": "uint256"
            },
            {
              "internalType": "uint256",
              "name": "productQty",
              "type": "uint256"
            }
          ],
          "internalType": "struct InventoryPayment.Product[]",
          "name": "",
          "type": "tuple[]"
        }
      ],
      "stateMutability": "view",
      "type": "function",
      "constant": true
    },
    {
      "inputs": [
        {
          "internalType": "uint256[]",
          "name": "_productIds",
          "type": "uint256[]"
        },
        {
          "internalType": "uint256[]",
          "name": "_productQtyOrder",
          "type": "uint256[]"
        },
        {
          "internalType": "uint256",
          "name": "_supplierId",
          "type": "uint256"
        }
      ],
      "name": "placeOrder",
      "outputs": [],
      "stateMutability": "nonpayable",
      "type": "function"
    },
    {
      "inputs": [
        {
          "internalType": "address",
          "name": "_user",
          "type": "address"
        }
      ],
      "name": "getPlacedOrderNumbers",
      "outputs": [
        {
          "internalType": "uint256[]",
          "name": "",
          "type": "uint256[]"
        }
      ],
      "stateMutability": "view",
      "type": "function",
      "constant": true
    },
    {
      "inputs": [
        {
          "internalType": "address",
          "name": "_user",
          "type": "address"
        },
        {
          "internalType": "uint256",
          "name": "_orderNo",
          "type": "uint256"
        }
      ],
      "name": "getOrderDetails",
      "outputs": [
        {
          "internalType": "uint256",
          "name": "orderNo",
          "type": "uint256"
        },
        {
          "internalType": "uint256",
          "name": "orderDate",
          "type": "uint256"
        },
        {
          "internalType": "uint256",
          "name": "orderTotalAmount",
          "type": "uint256"
        },
        {
          "internalType": "string",
          "name": "orderStatus",
          "type": "string"
        },
        {
          "internalType": "uint256",
          "name": "supplierId",
          "type": "uint256"
        },
        {
          "internalType": "uint256[]",
          "name": "productIds",
          "type": "uint256[]"
        },
        {
          "internalType": "uint256[]",
          "name": "productQtys",
          "type": "uint256[]"
        }
      ],
      "stateMutability": "view",
      "type": "function",
      "constant": true
    },
    {
      "inputs": [
        {
          "internalType": "string",
          "name": "a",
          "type": "string"
        },
        {
          "internalType": "string",
          "name": "b",
          "type": "string"
        }
      ],
      "name": "compareStrings",
      "outputs": [
        {
          "internalType": "bool",
          "name": "",
          "type": "bool"
        }
      ],
      "stateMutability": "pure",
      "type": "function",
      "constant": true
    },
    {
      "inputs": [
        {
          "internalType": "uint256",
          "name": "_orderNo",
          "type": "uint256"
        },
        {
          "components": [
            {
              "internalType": "uint256",
              "name": "productId",
              "type": "uint256"
            },
            {
              "internalType": "uint256",
              "name": "productQtyOrder",
              "type": "uint256"
            },
            {
              "internalType": "uint256",
              "name": "productQtyReceived",
              "type": "uint256"
            },
            {
              "internalType": "uint256",
              "name": "productPrice",
              "type": "uint256"
            }
          ],
          "internalType": "struct InventoryPayment.OrderDetail[]",
          "name": "_receivedProducts",
          "type": "tuple[]"
        }
      ],
      "name": "receiveOrder",
      "outputs": [],
      "stateMutability": "nonpayable",
      "type": "function"
    }
  ],
  "bytecode": "0x608060405234801561000f575f80fd5b50615607806200001e5f395ff3fe608060405234801561000f575f80fd5b50600436106101e3575f3560e01c80636f1378061161010d578063bed34bba116100a0578063eafd4bbd1161006f578063eafd4bbd146105db578063ed90c7b71461060d578063f879eb5714610629578063fbf3c5d814610647576101e3565b8063bed34bba1461053e578063cea231211461056e578063d5d6690c146105a1578063e0f6ef87146105bd576101e3565b80637acc0b20116100dc5780637acc0b2014610487578063856652e9146104ba5780639431a635146104ef578063b2624e1714610522576101e3565b80636f137806146103eb578063766662f21461041b578063770719151461043957806378147d4e14610455576101e3565b8063330b066211610185578063562e07cd11610154578063562e07cd1461034b5780635b1389af146103815780636654b4d01461039f5780636dedcb09146103bb576101e3565b8063330b0662146102af5780633605adae146102cb5780634e818c4b146102fd578063503a37e01461032d576101e3565b8063140c6b91116101c1578063140c6b911461023b5780632453ffa8146102595780632d5617871461027757806332689cf014610293576101e3565b806303d4afc5146101e757806305d3d36614610203578063125b0b341461021f575b5f80fd5b61020160048036038101906101fc919061351b565b610677565b005b61021d6004803603810190610218919061351b565b61072e565b005b61023960048036038101906102349190613682565b6108cf565b005b6102436109a8565b60405161025091906136fd565b60405180910390f35b6102616109ae565b60405161026e91906136fd565b60405180910390f35b610291600480360381019061028c9190613716565b6109b4565b005b6102ad60048036038101906102a89190613716565b610a6f565b005b6102c960048036038101906102c49190613796565b610b2b565b005b6102e560048036038101906102e0919061351b565b610db4565b6040516102f4939291906138f7565b60405180910390f35b61031760048036038101906103129190613994565b610ee6565b6040516103249190613a76565b60405180910390f35b610335610fe5565b6040516103429190613bf9565b60405180910390f35b61036560048036038101906103609190613c19565b61115d565b6040516103789796959493929190613c57565b60405180910390f35b6103896113b8565b6040516103969190613df4565b60405180910390f35b6103b960048036038101906103b49190613ed8565b61152e565b005b6103d560048036038101906103d0919061351b565b611978565b6040516103e29190613fc0565b60405180910390f35b6104056004803603810190610400919061351b565b611a50565b60405161041291906136fd565b60405180910390f35b610423611a70565b604051610430919061415d565b60405180910390f35b610453600480360381019061044e91906142b6565b611da1565b005b61046f600480360381019061046a919061351b565b6127b3565b60405161047e93929190614310565b60405180910390f35b6104a1600480360381019061049c919061351b565b6128f0565b6040516104b1949392919061434c565b60405180910390f35b6104d460048036038101906104cf9190613c19565b6129a2565b6040516104e6969594939291906143b0565b60405180910390f35b6105096004803603810190610504919061351b565b612a86565b604051610519949392919061434c565b60405180910390f35b61053c60048036038101906105379190613682565b612b38565b005b61055860048036038101906105539190614416565b612d0c565b604051610565919061448c565b60405180910390f35b6105886004803603810190610583919061351b565b612d64565b60405161059894939291906144f9565b60405180910390f35b6105bb60048036038101906105b69190614551565b612fcf565b005b6105c56130c2565b6040516105d291906136fd565b60405180910390f35b6105f560048036038101906105f0919061351b565b6130c7565b60405161060493929190614310565b60405180910390f35b6106276004803603810190610622919061351b565b613203565b005b610631613377565b60405161063e91906136fd565b60405180910390f35b610661600480360381019061065c919061351b565b61337d565b60405161066e91906136fd565b60405180910390f35b600154811115801561068857505f81115b6106c7576040517f08c379a00000000000000000000000000000000000000000000000000000000081526004016106be90614694565b60405180910390fd5b60085f8281526020019081526020015f205f8082015f9055600182015f6106ee919061339d565b600282015f9055600382015f90555050807f6cfb81c439b427c92810494d6fb954e0d5f6d5b31d80416405bc08b284a8d23960405160405180910390a250565b600354811115801561073f57505f81115b61077e576040517f08c379a0000000000000000000000000000000000000000000000000000000008152600401610775906146fc565b60405180910390fd5b600a5f8281526020019081526020015f205f8082015f9055600182015f6107a5919061339d565b600282015f6107b4919061339d565b600382015f8082015f6107c7919061339d565b600182015f6107d6919061339d565b600282015f905550505050807f659ad8d8d936972f64b8c76df1f0805c7194c3ada1c7e1e02d2212a294744b6860405160405180910390a25f5b6005805490508110156108cb5781600582815481106108325761083161471a565b5b905f5260205f200154036108b857600560016005805490506108549190614774565b815481106108655761086461471a565b5b905f5260205f200154600582815481106108825761088161471a565b5b905f5260205f20018190555060058054806108a05761089f6147a7565b5b600190038181905f5260205f20015f905590556108cb565b80806108c3906147d4565b915050610810565b5050565b5f808154809291906108e0906147d4565b919050555060405180608001604052805f5481526020018481526020018381526020018281525060065f805481526020019081526020015f205f820151815f015560208201518160010190816109369190614a15565b50604082015181600201556060820151816003015590505060045f54908060018154018082558091505060019003905f5260205f20015f90919091909150555f547f4fc9d5acc453e78e01b205af5788a1c62f195c4b5cdc8eb8f1c670863b7e736a60405160405180910390a2505050565b60035481565b60025481565b5f5484111580156109c457505f84115b610a03576040517f08c379a00000000000000000000000000000000000000000000000000000000081526004016109fa90614b2e565b60405180910390fd5b5f60065f8681526020019081526020015f20905083816001019081610a289190614a15565b50828160020181905550818160030181905550847feca6714fcf568fb34cf9db4a414cb0cc48e93c5d4e1ba0582a46ea3704cf24d560405160405180910390a25050505050565b6001548411158015610a8057505f84115b610abf576040517f08c379a0000000000000000000000000000000000000000000000000000000008152600401610ab690614694565b60405180910390fd5b5f60085f8681526020019081526020015f20905083816001019081610ae49190614a15565b50828160020181905550818160030181905550847fdc16211c01e83339507d9d54214d47194290eee1aec7c4f3867ba3f86b42efa360405160405180910390a25050505050565b5f855111610b6e576040517f08c379a0000000000000000000000000000000000000000000000000000000008152600401610b6590614b96565b60405180910390fd5b5f845111610bb1576040517f08c379a0000000000000000000000000000000000000000000000000000000008152600401610ba890614bfe565b60405180910390fd5b5f835111610bf4576040517f08c379a0000000000000000000000000000000000000000000000000000000008152600401610beb90614c66565b60405180910390fd5b5f825111610c37576040517f08c379a0000000000000000000000000000000000000000000000000000000008152600401610c2e90614cce565b60405180910390fd5b5f8103610c79576040517f08c379a0000000000000000000000000000000000000000000000000000000008152600401610c7090614d5c565b60405180910390fd5b60035f815480929190610c8b906147d4565b919050555060405180608001604052806003548152602001868152602001858152602001604051806060016040528086815260200185815260200184815250815250600a5f60035481526020019081526020015f205f820151815f01556020820151816001019081610cfd9190614a15565b506040820151816002019081610d139190614a15565b506060820151816003015f820151815f019081610d309190614a15565b506020820151816001019081610d469190614a15565b506040820151816002015550509050506005600354908060018154018082558091505060019003905f5260205f20015f90919091909150556003547f061189d1338f04d65bc2d4338b794ee9b61e9344c3758f31ebf3b1d810437eee60405160405180910390a25050505050565b6009602052805f5260405f205f91509050805f018054610dd390614848565b80601f0160208091040260200160405190810160405280929190818152602001828054610dff90614848565b8015610e4a5780601f10610e2157610100808354040283529160200191610e4a565b820191905f5260205f20905b815481529060010190602001808311610e2d57829003601f168201915b505050505090806001018054610e5f90614848565b80601f0160208091040260200160405190810160405280929190818152602001828054610e8b90614848565b8015610ed65780601f10610ead57610100808354040283529160200191610ed6565b820191905f5260205f20905b815481529060010190602001808311610eb957829003601f168201915b5050505050908060020154905083565b60605f60075f8473ffffffffffffffffffffffffffffffffffffffff1673ffffffffffffffffffffffffffffffffffffffff1681526020019081526020015f2090505f818054905067ffffffffffffffff811115610f4757610f4661355e565b5b604051908082528060200260200182016040528015610f755781602001602082028036833780820191505090505b5090505f5b8280549050811015610fda57828181548110610f9957610f9861471a565b5b905f5260205f2090600802015f0154828281518110610fbb57610fba61471a565b5b6020026020010181815250508080610fd2906147d4565b915050610f7a565b508092505050919050565b60605f60015467ffffffffffffffff8111156110045761100361355e565b5b60405190808252806020026020018201604052801561103d57816020015b61102a6133da565b8152602001906001900390816110225790505b5090505f600190505b60015481116111555760085f8281526020019081526020015f206040518060800160405290815f820154815260200160018201805461108490614848565b80601f01602080910402602001604051908101604052809291908181526020018280546110b090614848565b80156110fb5780601f106110d2576101008083540402835291602001916110fb565b820191905f5260205f20905b8154815290600101906020018083116110de57829003601f168201915b5050505050815260200160028201548152602001600382015481525050826001836111269190614774565b815181106111375761113661471a565b5b6020026020010181905250808061114d906147d4565b915050611046565b508091505090565b5f805f60605f6060805f60075f8b73ffffffffffffffffffffffffffffffffffffffff1673ffffffffffffffffffffffffffffffffffffffff1681526020019081526020015f2090505f5b818054905081101561137057898282815481106111c8576111c761471a565b5b905f5260205f2090600802015f01540361135d575f8282815481106111f0576111ef61471a565b5b905f5260205f2090600802019050805f015481600101548260020154836003018460040154856005018660060183805461122990614848565b80601f016020809104026020016040519081016040528092919081815260200182805461125590614848565b80156112a05780601f10611277576101008083540402835291602001916112a0565b820191905f5260205f20905b81548152906001019060200180831161128357829003601f168201915b50505050509350818054806020026020016040519081016040528092919081815260200182805480156112f057602002820191905f5260205f20905b8154815260200190600101908083116112dc575b505050505091508080548060200260200160405190810160405280929190818152602001828054801561134057602002820191905f5260205f20905b81548152602001906001019080831161132c575b5050505050905099509950995099509950995099505050506113ac565b8080611368906147d4565b9150506111a8565b506040517f08c379a00000000000000000000000000000000000000000000000000000000081526004016113a390614dc4565b60405180910390fd5b92959891949750929550565b60605f805467ffffffffffffffff8111156113d6576113d561355e565b5b60405190808252806020026020018201604052801561140f57816020015b6113fc6133ff565b8152602001906001900390816113f45790505b5090505f600190505b5f5481116115265760065f8281526020019081526020015f206040518060800160405290815f820154815260200160018201805461145590614848565b80601f016020809104026020016040519081016040528092919081815260200182805461148190614848565b80156114cc5780601f106114a3576101008083540402835291602001916114cc565b820191905f5260205f20905b8154815290600101906020018083116114af57829003601f168201915b5050505050815260200160028201548152602001600382015481525050826001836114f79190614774565b815181106115085761150761471a565b5b6020026020010181905250808061151e906147d4565b915050611418565b508091505090565b8151835114611572576040517f08c379a000000000000000000000000000000000000000000000000000000000815260040161156990614e2c565b60405180910390fd5b5f805b8451811015611675575f548582815181106115935761159261471a565b5b6020026020010151111580156115c257505f8582815181106115b8576115b761471a565b5b6020026020010151115b611601576040517f08c379a00000000000000000000000000000000000000000000000000000000081526004016115f890614b2e565b60405180910390fd5b8381815181106116145761161361471a565b5b602002602001015160065f8784815181106116325761163161471a565b5b602002602001015181526020019081526020015f20600201546116559190614e4a565b826116609190614e8b565b9150808061166d906147d4565b915050611575565b5060025f815480929190611688906147d4565b91905055505f60025490505f855167ffffffffffffffff8111156116af576116ae61355e565b5b6040519080825280602002602001820160405280156116dd5781602001602082028036833780820191505090505b5090505f855167ffffffffffffffff8111156116fc576116fb61355e565b5b60405190808252806020026020018201604052801561172a5781602001602082028036833780820191505090505b5090505f5b87518110156117bf5787818151811061174b5761174a61471a565b5b60200260200101518382815181106117665761176561471a565b5b6020026020010181815250508681815181106117855761178461471a565b5b60200260200101518282815181106117a05761179f61471a565b5b60200260200101818152505080806117b7906147d4565b91505061172f565b5060075f3373ffffffffffffffffffffffffffffffffffffffff1673ffffffffffffffffffffffffffffffffffffffff1681526020019081526020015f206040518061010001604052808581526020014281526020018681526020016040518060400160405280600681526020017f706c61636564000000000000000000000000000000000000000000000000000081525081526020018781526020018481526020018381526020015f1515815250908060018154018082558091505060019003905f5260205f2090600802015f909190919091505f820151815f0155602082015181600101556040820151816002015560608201518160030190816118c59190614a15565b506080820151816004015560a08201518160050190805190602001906118ec929190613424565b5060c0820151816006019080519060200190611909929190613424565b5060e0820151816007015f6101000a81548160ff02191690831515021790555050503373ffffffffffffffffffffffffffffffffffffffff16837f5222ba5f86a58ad15e7771bd95a809f162ae1762ea7cd66e28a58217341334cc60405160405180910390a350505050505050565b6119806133da565b60085f8381526020019081526020015f206040518060800160405290815f82015481526020016001820180546119b590614848565b80601f01602080910402602001604051908101604052809291908181526020018280546119e190614848565b8015611a2c5780601f10611a0357610100808354040283529160200191611a2c565b820191905f5260205f20905b815481529060010190602001808311611a0f57829003601f168201915b50505050508152602001600282015481526020016003820154815250509050919050565b60058181548110611a5f575f80fd5b905f5260205f20015f915090505481565b60605f60035467ffffffffffffffff811115611a8f57611a8e61355e565b5b604051908082528060200260200182016040528015611ac857816020015b611ab561346f565b815260200190600190039081611aad5790505b5090505f600190505b6003548111611d9957600a5f8281526020019081526020015f206040518060800160405290815f8201548152602001600182018054611b0f90614848565b80601f0160208091040260200160405190810160405280929190818152602001828054611b3b90614848565b8015611b865780601f10611b5d57610100808354040283529160200191611b86565b820191905f5260205f20905b815481529060010190602001808311611b6957829003601f168201915b50505050508152602001600282018054611b9f90614848565b80601f0160208091040260200160405190810160405280929190818152602001828054611bcb90614848565b8015611c165780601f10611bed57610100808354040283529160200191611c16565b820191905f5260205f20905b815481529060010190602001808311611bf957829003601f168201915b50505050508152602001600382016040518060600160405290815f82018054611c3e90614848565b80601f0160208091040260200160405190810160405280929190818152602001828054611c6a90614848565b8015611cb55780601f10611c8c57610100808354040283529160200191611cb5565b820191905f5260205f20905b815481529060010190602001808311611c9857829003601f168201915b50505050508152602001600182018054611cce90614848565b80601f0160208091040260200160405190810160405280929190818152602001828054611cfa90614848565b8015611d455780601f10611d1c57610100808354040283529160200191611d45565b820191905f5260205f20905b815481529060010190602001808311611d2857829003601f168201915b505050505081526020016002820154815250508152505082600183611d6a9190614774565b81518110611d7b57611d7a61471a565b5b60200260200101819052508080611d91906147d4565b915050611ad1565b508091505090565b611da96133da565b5f80600190505f600190505b6001548111611ecf575f60085f8381526020019081526020015f206001018054611dde90614848565b905014611ebc5760085f8281526020019081526020015f206040518060800160405290815f8201548152602001600182018054611e1a90614848565b80601f0160208091040260200160405190810160405280929190818152602001828054611e4690614848565b8015611e915780601f10611e6857610100808354040283529160200191611e91565b820191905f5260205f20905b815481529060010190602001808311611e7457829003601f168201915b5050505050815260200160028201548152602001600382015481525050935080915060019250611ecf565b8080611ec7906147d4565b915050611db5565b5081611f10576040517f08c379a0000000000000000000000000000000000000000000000000000000008152600401611f0790614f08565b60405180910390fd5b5f60075f3373ffffffffffffffffffffffffffffffffffffffff1673ffffffffffffffffffffffffffffffffffffffff1681526020019081526020015f2090505f805b82805490508110156124be577f6e3a9afac6b722e3d09db264b7b44229b15a917c38a39dade47820a9c34e2991604051611f8c90614f70565b60405180910390a187838281548110611fa857611fa761471a565b5b905f5260205f2090600802015f01541480156120a857506120a6838281548110611fd557611fd461471a565b5b905f5260205f2090600802016003018054611fef90614848565b80601f016020809104026020016040519081016040528092919081815260200182805461201b90614848565b80156120665780601f1061203d57610100808354040283529160200191612066565b820191905f5260205f20905b81548152906001019060200180831161204957829003601f168201915b50505050506040518060400160405280600881526020017f7265636569766564000000000000000000000000000000000000000000000000815250612d0c565b155b156124ab577f6e3a9afac6b722e3d09db264b7b44229b15a917c38a39dade47820a9c34e29916040516120da90614fd8565b60405180910390a15f8382815481106120f6576120f561471a565b5b905f5260205f2090600802016005018054905088511461214b576040517f08c379a000000000000000000000000000000000000000000000000000000000815260040161214290615066565b60405180910390fd5b7f6e3a9afac6b722e3d09db264b7b44229b15a917c38a39dade47820a9c34e2991604051612178906150ce565b60405180910390a15f5b885181101561232a577f6e3a9afac6b722e3d09db264b7b44229b15a917c38a39dade47820a9c34e29916040516121b890615136565b60405180910390a18483815481106121d3576121d261471a565b5b905f5260205f20906008020160060181815481106121f4576121f361471a565b5b905f5260205f2001548982815181106122105761220f61471a565b5b602002602001015160400151111561225d576040517f08c379a0000000000000000000000000000000000000000000000000000000008152600401612254906151c4565b60405180910390fd5b8881815181106122705761226f61471a565b5b60200260200101516060015189828151811061228f5761228e61471a565b5b6020026020010151604001516122a59190614e4a565b826122b09190614e8b565b91508881815181106122c5576122c461471a565b5b60200260200101516040015160065f8b84815181106122e7576122e661471a565b5b60200260200101515f015181526020019081526020015f206003015f8282546123109190614e8b565b925050819055508080612322906147d4565b915050612182565b507f37341951fd09dff0f9723943e8acb1722e13ae64b3897cb99148787f6193cee384838154811061235f5761235e61471a565b5b905f5260205f20906008020160030160405161237b9190615263565b60405180910390a160018483815481106123985761239761471a565b5b905f5260205f2090600802016007015f6101000a81548160ff0219169083151502179055506040518060400160405280600881526020017f72656365697665640000000000000000000000000000000000000000000000008152508483815481106124065761240561471a565b5b905f5260205f20906008020160030190816124219190614a15565b50808483815481106124365761243561471a565b5b905f5260205f209060080201600201819055507f37341951fd09dff0f9723943e8acb1722e13ae64b3897cb99148787f6193cee384838154811061247d5761247c61471a565b5b905f5260205f2090600802016003016040516124999190615263565b60405180910390a160019250506124be565b80806124b6906147d4565b915050611f53565b507f6e3a9afac6b722e3d09db264b7b44229b15a917c38a39dade47820a9c34e29916040516124ec906152cd565b60405180910390a15f5b828054905081101561276957878382815481106125165761251561471a565b5b905f5260205f2090600802015f015414801561261557506126148382815481106125435761254261471a565b5b905f5260205f209060080201600301805461255d90614848565b80601f016020809104026020016040519081016040528092919081815260200182805461258990614848565b80156125d45780601f106125ab576101008083540402835291602001916125d4565b820191905f5260205f20905b8154815290600101906020018083116125b757829003601f168201915b50505050506040518060400160405280600881526020017f7265636569766564000000000000000000000000000000000000000000000000815250612d0c565b5b15612721575f83828154811061262e5761262d61471a565b5b905f5260205f2090600802016002015490507f6e3a9afac6b722e3d09db264b7b44229b15a917c38a39dade47820a9c34e299160405161266d90615335565b60405180910390a1808760600151116126bb576040517f08c379a00000000000000000000000000000000000000000000000000000000081526004016126b29061539d565b60405180910390fd5b80876060018181516126cd9190614774565b915081815250508660085f8781526020019081526020015f205f820151815f015560208201518160010190816127039190614a15565b50604082015181600201556060820151816003015590505050612769565b7f6e3a9afac6b722e3d09db264b7b44229b15a917c38a39dade47820a9c34e299160405161274e90615405565b60405180910390a18080612761906147d4565b9150506124f6565b50806127aa576040517f08c379a00000000000000000000000000000000000000000000000000000000081526004016127a190615493565b60405180910390fd5b50505050505050565b60605f8060015484111580156127c857505f84115b612807576040517f08c379a00000000000000000000000000000000000000000000000000000000081526004016127fe90614694565b60405180910390fd5b5f60085f8681526020019081526020015f206040518060800160405290815f820154815260200160018201805461283d90614848565b80601f016020809104026020016040519081016040528092919081815260200182805461286990614848565b80156128b45780601f1061288b576101008083540402835291602001916128b4565b820191905f5260205f20905b81548152906001019060200180831161289757829003601f168201915b50505050508152602001600282015481526020016003820154815250509050806020015181604001518260400151935093509350509193909250565b6006602052805f5260405f205f91509050805f01549080600101805461291590614848565b80601f016020809104026020016040519081016040528092919081815260200182805461294190614848565b801561298c5780601f106129635761010080835404028352916020019161298c565b820191905f5260205f20905b81548152906001019060200180831161296f57829003601f168201915b5050505050908060020154908060030154905084565b6007602052815f5260405f2081815481106129bb575f80fd5b905f5260205f2090600802015f9150915050805f0154908060010154908060020154908060030180546129ed90614848565b80601f0160208091040260200160405190810160405280929190818152602001828054612a1990614848565b8015612a645780601f10612a3b57610100808354040283529160200191612a64565b820191905f5260205f20905b815481529060010190602001808311612a4757829003601f168201915b505050505090806004015490806007015f9054906101000a900460ff16905086565b6008602052805f5260405f205f91509050805f015490806001018054612aab90614848565b80601f0160208091040260200160405190810160405280929190818152602001828054612ad790614848565b8015612b225780601f10612af957610100808354040283529160200191612b22565b820191905f5260205f20905b815481529060010190602001808311612b0557829003601f168201915b5050505050908060020154908060030154905084565b5f835111612b7b576040517f08c379a0000000000000000000000000000000000000000000000000000000008152600401612b7290614c66565b60405180910390fd5b5f8203612bbd576040517f08c379a0000000000000000000000000000000000000000000000000000000008152600401612bb490614d5c565b60405180910390fd5b5f8103612bff576040517f08c379a0000000000000000000000000000000000000000000000000000000008152600401612bf6906154fb565b60405180910390fd5b5f60085f60015481526020019081526020015f205f015414612c56576040517f08c379a0000000000000000000000000000000000000000000000000000000008152600401612c4d90615563565b60405180910390fd5b60015f815480929190612c68906147d4565b9190505550604051806080016040528060015481526020018481526020018381526020018281525060085f60015481526020019081526020015f205f820151815f01556020820151816001019081612cc09190614a15565b5060408201518160020155606082015181600301559050506001547febebffae43ff234e2b6a4e4937a33d8ea339f259ff0661dd9e98ae4a75e5185960405160405180910390a2505050565b5f81604051602001612d1e91906155bb565b6040516020818303038152906040528051906020012083604051602001612d4591906155bb565b6040516020818303038152906040528051906020012014905092915050565b600a602052805f5260405f205f91509050805f015490806001018054612d8990614848565b80601f0160208091040260200160405190810160405280929190818152602001828054612db590614848565b8015612e005780601f10612dd757610100808354040283529160200191612e00565b820191905f5260205f20905b815481529060010190602001808311612de357829003601f168201915b505050505090806002018054612e1590614848565b80601f0160208091040260200160405190810160405280929190818152602001828054612e4190614848565b8015612e8c5780601f10612e6357610100808354040283529160200191612e8c565b820191905f5260205f20905b815481529060010190602001808311612e6f57829003601f168201915b505050505090806003016040518060600160405290815f82018054612eb090614848565b80601f0160208091040260200160405190810160405280929190818152602001828054612edc90614848565b8015612f275780601f10612efe57610100808354040283529160200191612f27565b820191905f5260205f20905b815481529060010190602001808311612f0a57829003601f168201915b50505050508152602001600182018054612f4090614848565b80601f0160208091040260200160405190810160405280929190818152602001828054612f6c90614848565b8015612fb75780601f10612f8e57610100808354040283529160200191612fb7565b820191905f5260205f20905b815481529060010190602001808311612f9a57829003601f168201915b50505050508152602001600282015481525050905084565b6003548611158015612fe057505f86115b61301f576040517f08c379a0000000000000000000000000000000000000000000000000000000008152600401613016906146fc565b60405180910390fd5b5f600a5f8881526020019081526020015f209050858160010190816130449190614a15565b50848160020190816130569190614a15565b5083816003015f01908161306a9190614a15565b508281600301600101908161307f9190614a15565b50818160030160020181905550867f16bda03ec6eeafb585ceed93192d7c3f36e21937df4a24a2b17126736f7cab4060405160405180910390a250505050505050565b5f5481565b60605f805f5484111580156130db57505f84115b61311a576040517f08c379a000000000000000000000000000000000000000000000000000000000815260040161311190614b2e565b60405180910390fd5b5f60065f8681526020019081526020015f206040518060800160405290815f820154815260200160018201805461315090614848565b80601f016020809104026020016040519081016040528092919081815260200182805461317c90614848565b80156131c75780601f1061319e576101008083540402835291602001916131c7565b820191905f5260205f20905b8154815290600101906020018083116131aa57829003601f168201915b50505050508152602001600282015481526020016003820154815250509050806020015181604001518260600151935093509350509193909250565b5f54811115801561321357505f81115b613252576040517f08c379a000000000000000000000000000000000000000000000000000000000815260040161324990614b2e565b60405180910390fd5b60065f8281526020019081526020015f205f8082015f9055600182015f613279919061339d565b600282015f9055600382015f90555050807fc341cf326465fe622f86c468249e8c0cb03ed23ba376a6a34863a1374ac7d76960405160405180910390a25f5b6004805490508110156133735781600482815481106132da576132d961471a565b5b905f5260205f2001540361336057600460016004805490506132fc9190614774565b8154811061330d5761330c61471a565b5b905f5260205f2001546004828154811061332a5761332961471a565b5b905f5260205f2001819055506004805480613348576133476147a7565b5b600190038181905f5260205f20015f90559055613373565b808061336b906147d4565b9150506132b8565b5050565b60015481565b6004818154811061338c575f80fd5b905f5260205f20015f915090505481565b5080546133a990614848565b5f825580601f106133ba57506133d7565b601f0160209004905f5260205f20908101906133d6919061349c565b5b50565b60405180608001604052805f8152602001606081526020015f81526020015f81525090565b60405180608001604052805f8152602001606081526020015f81526020015f81525090565b828054828255905f5260205f2090810192821561345e579160200282015b8281111561345d578251825591602001919060010190613442565b5b50905061346b919061349c565b5090565b60405180608001604052805f815260200160608152602001606081526020016134966134b7565b81525090565b5b808211156134b3575f815f90555060010161349d565b5090565b604051806060016040528060608152602001606081526020015f81525090565b5f604051905090565b5f80fd5b5f80fd5b5f819050919050565b6134fa816134e8565b8114613504575f80fd5b50565b5f81359050613515816134f1565b92915050565b5f602082840312156135305761352f6134e0565b5b5f61353d84828501613507565b91505092915050565b5f80fd5b5f80fd5b5f601f19601f8301169050919050565b7f4e487b71000000000000000000000000000000000000000000000000000000005f52604160045260245ffd5b6135948261354e565b810181811067ffffffffffffffff821117156135b3576135b261355e565b5b80604052505050565b5f6135c56134d7565b90506135d1828261358b565b919050565b5f67ffffffffffffffff8211156135f0576135ef61355e565b5b6135f98261354e565b9050602081019050919050565b828183375f83830152505050565b5f613626613621846135d6565b6135bc565b9050828152602081018484840111156136425761364161354a565b5b61364d848285613606565b509392505050565b5f82601f83011261366957613668613546565b5b8135613679848260208601613614565b91505092915050565b5f805f60608486031215613699576136986134e0565b5b5f84013567ffffffffffffffff8111156136b6576136b56134e4565b5b6136c286828701613655565b93505060206136d386828701613507565b92505060406136e486828701613507565b9150509250925092565b6136f7816134e8565b82525050565b5f6020820190506137105f8301846136ee565b92915050565b5f805f806080858703121561372e5761372d6134e0565b5b5f61373b87828801613507565b945050602085013567ffffffffffffffff81111561375c5761375b6134e4565b5b61376887828801613655565b935050604061377987828801613507565b925050606061378a87828801613507565b91505092959194509250565b5f805f805f60a086880312156137af576137ae6134e0565b5b5f86013567ffffffffffffffff8111156137cc576137cb6134e4565b5b6137d888828901613655565b955050602086013567ffffffffffffffff8111156137f9576137f86134e4565b5b61380588828901613655565b945050604086013567ffffffffffffffff811115613826576138256134e4565b5b61383288828901613655565b935050606086013567ffffffffffffffff811115613853576138526134e4565b5b61385f88828901613655565b925050608061387088828901613507565b9150509295509295909350565b5f81519050919050565b5f82825260208201905092915050565b5f5b838110156138b4578082015181840152602081019050613899565b5f8484015250505050565b5f6138c98261387d565b6138d38185613887565b93506138e3818560208601613897565b6138ec8161354e565b840191505092915050565b5f6060820190508181035f83015261390f81866138bf565b9050818103602083015261392381856138bf565b905061393260408301846136ee565b949350505050565b5f73ffffffffffffffffffffffffffffffffffffffff82169050919050565b5f6139638261393a565b9050919050565b61397381613959565b811461397d575f80fd5b50565b5f8135905061398e8161396a565b92915050565b5f602082840312156139a9576139a86134e0565b5b5f6139b684828501613980565b91505092915050565b5f81519050919050565b5f82825260208201905092915050565b5f819050602082019050919050565b6139f1816134e8565b82525050565b5f613a0283836139e8565b60208301905092915050565b5f602082019050919050565b5f613a24826139bf565b613a2e81856139c9565b9350613a39836139d9565b805f5b83811015613a69578151613a5088826139f7565b9750613a5b83613a0e565b925050600181019050613a3c565b5085935050505092915050565b5f6020820190508181035f830152613a8e8184613a1a565b905092915050565b5f81519050919050565b5f82825260208201905092915050565b5f819050602082019050919050565b5f82825260208201905092915050565b5f613ad98261387d565b613ae38185613abf565b9350613af3818560208601613897565b613afc8161354e565b840191505092915050565b5f608083015f830151613b1c5f8601826139e8565b5060208301518482036020860152613b348282613acf565b9150506040830151613b4960408601826139e8565b506060830151613b5c60608601826139e8565b508091505092915050565b5f613b728383613b07565b905092915050565b5f602082019050919050565b5f613b9082613a96565b613b9a8185613aa0565b935083602082028501613bac85613ab0565b805f5b85811015613be75784840389528151613bc88582613b67565b9450613bd383613b7a565b925060208a01995050600181019050613baf565b50829750879550505050505092915050565b5f6020820190508181035f830152613c118184613b86565b905092915050565b5f8060408385031215613c2f57613c2e6134e0565b5b5f613c3c85828601613980565b9250506020613c4d85828601613507565b9150509250929050565b5f60e082019050613c6a5f83018a6136ee565b613c7760208301896136ee565b613c8460408301886136ee565b8181036060830152613c9681876138bf565b9050613ca560808301866136ee565b81810360a0830152613cb78185613a1a565b905081810360c0830152613ccb8184613a1a565b905098975050505050505050565b5f81519050919050565b5f82825260208201905092915050565b5f819050602082019050919050565b5f608083015f830151613d175f8601826139e8565b5060208301518482036020860152613d2f8282613acf565b9150506040830151613d4460408601826139e8565b506060830151613d5760608601826139e8565b508091505092915050565b5f613d6d8383613d02565b905092915050565b5f602082019050919050565b5f613d8b82613cd9565b613d958185613ce3565b935083602082028501613da785613cf3565b805f5b85811015613de25784840389528151613dc38582613d62565b9450613dce83613d75565b925060208a01995050600181019050613daa565b50829750879550505050505092915050565b5f6020820190508181035f830152613e0c8184613d81565b905092915050565b5f67ffffffffffffffff821115613e2e57613e2d61355e565b5b602082029050602081019050919050565b5f80fd5b5f613e55613e5084613e14565b6135bc565b90508083825260208201905060208402830185811115613e7857613e77613e3f565b5b835b81811015613ea15780613e8d8882613507565b845260208401935050602081019050613e7a565b5050509392505050565b5f82601f830112613ebf57613ebe613546565b5b8135613ecf848260208601613e43565b91505092915050565b5f805f60608486031215613eef57613eee6134e0565b5b5f84013567ffffffffffffffff811115613f0c57613f0b6134e4565b5b613f1886828701613eab565b935050602084013567ffffffffffffffff811115613f3957613f386134e4565b5b613f4586828701613eab565b9250506040613f5686828701613507565b9150509250925092565b5f608083015f830151613f755f8601826139e8565b5060208301518482036020860152613f8d8282613acf565b9150506040830151613fa260408601826139e8565b506060830151613fb560608601826139e8565b508091505092915050565b5f6020820190508181035f830152613fd88184613f60565b905092915050565b5f81519050919050565b5f82825260208201905092915050565b5f819050602082019050919050565b5f606083015f8301518482035f8601526140238282613acf565b9150506020830151848203602086015261403d8282613acf565b915050604083015161405260408601826139e8565b508091505092915050565b5f608083015f8301516140725f8601826139e8565b506020830151848203602086015261408a8282613acf565b915050604083015184820360408601526140a48282613acf565b915050606083015184820360608601526140be8282614009565b9150508091505092915050565b5f6140d6838361405d565b905092915050565b5f602082019050919050565b5f6140f482613fe0565b6140fe8185613fea565b93508360208202850161411085613ffa565b805f5b8581101561414b578484038952815161412c85826140cb565b9450614137836140de565b925060208a01995050600181019050614113565b50829750879550505050505092915050565b5f6020820190508181035f83015261417581846140ea565b905092915050565b5f67ffffffffffffffff8211156141975761419661355e565b5b602082029050602081019050919050565b5f80fd5b5f608082840312156141c1576141c06141a8565b5b6141cb60806135bc565b90505f6141da84828501613507565b5f8301525060206141ed84828501613507565b602083015250604061420184828501613507565b604083015250606061421584828501613507565b60608301525092915050565b5f61423361422e8461417d565b6135bc565b9050808382526020820190506080840283018581111561425657614255613e3f565b5b835b8181101561427f578061426b88826141ac565b845260208401935050608081019050614258565b5050509392505050565b5f82601f83011261429d5761429c613546565b5b81356142ad848260208601614221565b91505092915050565b5f80604083850312156142cc576142cb6134e0565b5b5f6142d985828601613507565b925050602083013567ffffffffffffffff8111156142fa576142f96134e4565b5b61430685828601614289565b9150509250929050565b5f6060820190508181035f83015261432881866138bf565b905061433760208301856136ee565b61434460408301846136ee565b949350505050565b5f60808201905061435f5f8301876136ee565b818103602083015261437181866138bf565b905061438060408301856136ee565b61438d60608301846136ee565b95945050505050565b5f8115159050919050565b6143aa81614396565b82525050565b5f60c0820190506143c35f8301896136ee565b6143d060208301886136ee565b6143dd60408301876136ee565b81810360608301526143ef81866138bf565b90506143fe60808301856136ee565b61440b60a08301846143a1565b979650505050505050565b5f806040838503121561442c5761442b6134e0565b5b5f83013567ffffffffffffffff811115614449576144486134e4565b5b61445585828601613655565b925050602083013567ffffffffffffffff811115614476576144756134e4565b5b61448285828601613655565b9150509250929050565b5f60208201905061449f5f8301846143a1565b92915050565b5f606083015f8301518482035f8601526144bf8282613acf565b915050602083015184820360208601526144d98282613acf565b91505060408301516144ee60408601826139e8565b508091505092915050565b5f60808201905061450c5f8301876136ee565b818103602083015261451e81866138bf565b9050818103604083015261453281856138bf565b9050818103606083015261454681846144a5565b905095945050505050565b5f805f805f8060c0878903121561456b5761456a6134e0565b5b5f61457889828a01613507565b965050602087013567ffffffffffffffff811115614599576145986134e4565b5b6145a589828a01613655565b955050604087013567ffffffffffffffff8111156145c6576145c56134e4565b5b6145d289828a01613655565b945050606087013567ffffffffffffffff8111156145f3576145f26134e4565b5b6145ff89828a01613655565b935050608087013567ffffffffffffffff8111156146205761461f6134e4565b5b61462c89828a01613655565b92505060a061463d89828a01613507565b9150509295509295509295565b7f496e76616c69642062616e6b20494400000000000000000000000000000000005f82015250565b5f61467e600f83613887565b91506146898261464a565b602082019050919050565b5f6020820190508181035f8301526146ab81614672565b9050919050565b7f496e76616c696420737570706c696572204944000000000000000000000000005f82015250565b5f6146e6601383613887565b91506146f1826146b2565b602082019050919050565b5f6020820190508181035f830152614713816146da565b9050919050565b7f4e487b71000000000000000000000000000000000000000000000000000000005f52603260045260245ffd5b7f4e487b71000000000000000000000000000000000000000000000000000000005f52601160045260245ffd5b5f61477e826134e8565b9150614789836134e8565b92508282039050818111156147a1576147a0614747565b5b92915050565b7f4e487b71000000000000000000000000000000000000000000000000000000005f52603160045260245ffd5b5f6147de826134e8565b91507fffffffffffffffffffffffffffffffffffffffffffffffffffffffffffffffff82036148105761480f614747565b5b600182019050919050565b7f4e487b71000000000000000000000000000000000000000000000000000000005f52602260045260245ffd5b5f600282049050600182168061485f57607f821691505b6020821081036148725761487161481b565b5b50919050565b5f819050815f5260205f209050919050565b5f6020601f8301049050919050565b5f82821b905092915050565b5f600883026148d47fffffffffffffffffffffffffffffffffffffffffffffffffffffffffffffffff82614899565b6148de8683614899565b95508019841693508086168417925050509392505050565b5f819050919050565b5f61491961491461490f846134e8565b6148f6565b6134e8565b9050919050565b5f819050919050565b614932836148ff565b61494661493e82614920565b8484546148a5565b825550505050565b5f90565b61495a61494e565b614965818484614929565b505050565b5b818110156149885761497d5f82614952565b60018101905061496b565b5050565b601f8211156149cd5761499e81614878565b6149a78461488a565b810160208510156149b6578190505b6149ca6149c28561488a565b83018261496a565b50505b505050565b5f82821c905092915050565b5f6149ed5f19846008026149d2565b1980831691505092915050565b5f614a0583836149de565b9150826002028217905092915050565b614a1e8261387d565b67ffffffffffffffff811115614a3757614a3661355e565b5b614a418254614848565b614a4c82828561498c565b5f60209050601f831160018114614a7d575f8415614a6b578287015190505b614a7585826149fa565b865550614adc565b601f198416614a8b86614878565b5f5b82811015614ab257848901518255600182019150602085019450602081019050614a8d565b86831015614acf5784890151614acb601f8916826149de565b8355505b6001600288020188555050505b505050505050565b7f496e76616c69642070726f6475637420494400000000000000000000000000005f82015250565b5f614b18601283613887565b9150614b2382614ae4565b602082019050919050565b5f6020820190508181035f830152614b4581614b0c565b9050919050565b7f537570706c696572206e616d652063616e6e6f7420626520656d7074790000005f82015250565b5f614b80601d83613887565b9150614b8b82614b4c565b602082019050919050565b5f6020820190508181035f830152614bad81614b74565b9050919050565b7f537570706c696572206e756d6265722063616e6e6f7420626520656d707479005f82015250565b5f614be8601f83613887565b9150614bf382614bb4565b602082019050919050565b5f6020820190508181035f830152614c1581614bdc565b9050919050565b7f42616e6b206e616d652063616e6e6f7420626520656d707479000000000000005f82015250565b5f614c50601983613887565b9150614c5b82614c1c565b602082019050919050565b5f6020820190508181035f830152614c7d81614c44565b9050919050565b7f536f727420636f64652063616e6e6f7420626520656d707479000000000000005f82015250565b5f614cb8601983613887565b9150614cc382614c84565b602082019050919050565b5f6020820190508181035f830152614ce581614cac565b9050919050565b7f42616e6b206163636f756e74206e756d6265722063616e6e6f74206265207a655f8201527f726f000000000000000000000000000000000000000000000000000000000000602082015250565b5f614d46602283613887565b9150614d5182614cec565b604082019050919050565b5f6020820190508181035f830152614d7381614d3a565b9050919050565b7f4f72646572206e6f7420666f756e6400000000000000000000000000000000005f82015250565b5f614dae600f83613887565b9150614db982614d7a565b602082019050919050565b5f6020820190508181035f830152614ddb81614da2565b9050919050565b7f4c656e677468206d69736d6174636800000000000000000000000000000000005f82015250565b5f614e16600f83613887565b9150614e2182614de2565b602082019050919050565b5f6020820190508181035f830152614e4381614e0a565b9050919050565b5f614e54826134e8565b9150614e5f836134e8565b9250828202614e6d816134e8565b91508282048414831517614e8457614e83614747565b5b5092915050565b5f614e95826134e8565b9150614ea0836134e8565b9250828201905080821115614eb857614eb7614747565b5b92915050565b7f4e6f2062616e6b2064657461696c7320666f756e6400000000000000000000005f82015250565b5f614ef2601583613887565b9150614efd82614ebe565b602082019050919050565b5f6020820190508181035f830152614f1f81614ee6565b9050919050565b7f53746167652031000000000000000000000000000000000000000000000000005f82015250565b5f614f5a600783613887565b9150614f6582614f26565b602082019050919050565b5f6020820190508181035f830152614f8781614f4e565b9050919050565b7f53746167652032000000000000000000000000000000000000000000000000005f82015250565b5f614fc2600783613887565b9150614fcd82614f8e565b602082019050919050565b5f6020820190508181035f830152614fef81614fb6565b9050919050565b7f52656365697665642070726f6475637420636f756e7420646f6573206e6f74205f8201527f6d61746368206f72646572000000000000000000000000000000000000000000602082015250565b5f615050602b83613887565b915061505b82614ff6565b604082019050919050565b5f6020820190508181035f83015261507d81615044565b9050919050565b7f53746167652033000000000000000000000000000000000000000000000000005f82015250565b5f6150b8600783613887565b91506150c382615084565b602082019050919050565b5f6020820190508181035f8301526150e5816150ac565b9050919050565b7f53746167652034000000000000000000000000000000000000000000000000005f82015250565b5f615120600783613887565b915061512b826150ec565b602082019050919050565b5f6020820190508181035f83015261514d81615114565b9050919050565b7f5265636569766564207175616e746974792065786365656473206f72646572655f8201527f64207175616e7469747900000000000000000000000000000000000000000000602082015250565b5f6151ae602a83613887565b91506151b982615154565b604082019050919050565b5f6020820190508181035f8301526151db816151a2565b9050919050565b5f81546151ee81614848565b6151f88186613887565b9450600182165f811461521257600181146152285761525a565b60ff19831686528115156020028601935061525a565b61523185614878565b5f5b8381101561525257815481890152600182019150602081019050615233565b808801955050505b50505092915050565b5f6020820190508181035f83015261527b81846151e2565b905092915050565b7f53746167652036207465737400000000000000000000000000000000000000005f82015250565b5f6152b7600c83613887565b91506152c282615283565b602082019050919050565b5f6020820190508181035f8301526152e4816152ab565b9050919050565b7f53746167652036000000000000000000000000000000000000000000000000005f82015250565b5f61531f600783613887565b915061532a826152eb565b602082019050919050565b5f6020820190508181035f83015261534c81615313565b9050919050565b7f496e73756666696369656e742062616c616e63650000000000000000000000005f82015250565b5f615387601483613887565b915061539282615353565b602082019050919050565b5f6020820190508181035f8301526153b48161537b565b9050919050565b7f53746167652037000000000000000000000000000000000000000000000000005f82015250565b5f6153ef600783613887565b91506153fa826153bb565b602082019050919050565b5f6020820190508181035f83015261541c816153e3565b9050919050565b7f4f72646572206e6f7420666f756e64206f7220616c72656164792072656365695f8201527f7665640000000000000000000000000000000000000000000000000000000000602082015250565b5f61547d602383613887565b915061548882615423565b604082019050919050565b5f6020820190508181035f8301526154aa81615471565b9050919050565b7f4261636b757020616d6f756e742063616e6e6f74206265207a65726f000000005f82015250565b5f6154e5601c83613887565b91506154f0826154b1565b602082019050919050565b5f6020820190508181035f830152615512816154d9565b9050919050565b7f42616e6b2064657461696c7320616c72656164792061646465640000000000005f82015250565b5f61554d601a83613887565b915061555882615519565b602082019050919050565b5f6020820190508181035f83015261557a81615541565b9050919050565b5f81905092915050565b5f6155958261387d565b61559f8185615581565b93506155af818560208601613897565b80840191505092915050565b5f6155c6828461558b565b91508190509291505056fea26469706673582212204055df8bcce9aed7b05e2d102b57ccf0423766f86e8abf2e0d59e4468353a1ec64736f6c63430008150033",
  "immutableReferences": {},
  "source": "// SPDX-License-Identifier: GPL-3.0\r\n\r\npragma solidity >=0.7.0 <0.9.0;\r\n\r\ncontract InventoryPayment {\r\n    struct Product {\r\n        uint256 productId;\r\n        string productName;\r\n        uint256 productPrice;\r\n        uint256 productQty;\r\n    }\r\n\r\n    struct Order {\r\n        uint256 orderNo;\r\n        uint256 orderDate;\r\n        uint256 orderTotalAmount;\r\n        string orderStatus;\r\n        uint256 supplierId;\r\n        uint256[] productIds;\r\n        uint256[] productQtys;\r\n        bool isReceived;\r\n    }\r\n\r\n    struct OrderDetail {\r\n        uint256 productId;\r\n        uint256 productQtyOrder;\r\n        uint256 productQtyReceived;\r\n        uint256 productPrice;\r\n    }\r\n\r\n    struct Supplier {\r\n        uint256 supplierId;\r\n        string supplierName;\r\n        string supplierNumber;\r\n        SupplierBank supplierBank;\r\n    }\r\n\r\n    struct SupplierBank {\r\n        string bankName;\r\n        string sortCode;\r\n        uint256 accountNumber;\r\n    }\r\n\r\n    struct Bank {\r\n        uint256 id;\r\n        string bankName;\r\n        uint256 bankAccountNumber;\r\n        uint256 backupAmount;\r\n    }\r\n\r\n    uint256 public productCount;\r\n    uint256 public bankCount;\r\n    uint256 public orderCount;\r\n    uint256 public supplierCount;\r\n    uint256[] public activeProductIds;\r\n    uint256[] public activeSupplierIds;\r\n\r\n    mapping(uint256 => Product) public products;\r\n    mapping(address => Order[]) public userOrders;\r\n    mapping(uint256 => Bank) public userBankDetails;\r\n    mapping(uint256 => SupplierBank) public supplierBankDetails;\r\n    mapping(uint256 => Supplier) public suppliers;\r\n    \r\n    event OrderPlaced(uint256 indexed orderNo, address indexed user);\r\n\r\n    event BankAdded(uint256 indexed bankId);\r\n    event BankUpdated(uint256 indexed bankId);\r\n    event BankDeleted(uint256 indexed bankId);\r\n\r\n    event ProductAdded(uint256 indexed productId);\r\n    event ProductUpdated(uint256 indexed productId);\r\n    event ProductDeleted(uint256 indexed productId);\r\n    event PaymentSent(\r\n        uint256 indexed orderNo,\r\n        address indexed supplier,\r\n        uint256 amount\r\n    );\r\n\r\n    event SupplierAdded(uint256 indexed supId);\r\n    event SupplierUpdated(uint256 indexed supId);\r\n    event SupplierDeleted(uint256 indexed supId);\r\n\r\n    // Function to add supplier details\r\n    function addSupplier(\r\n        string memory _supplierName,\r\n        string memory _supplierNumber,\r\n        string memory _bankName,\r\n        string memory _sortCode,\r\n        uint256 _bankAccountNumber\r\n    ) external {\r\n        require(\r\n            bytes(_supplierName).length > 0,\r\n            \"Supplier name cannot be empty\"\r\n        );\r\n        require(\r\n            bytes(_supplierNumber).length > 0,\r\n            \"Supplier number cannot be empty\"\r\n        );\r\n        require(bytes(_bankName).length > 0, \"Bank name cannot be empty\");\r\n        require(bytes(_sortCode).length > 0, \"Sort code cannot be empty\");\r\n        require(_bankAccountNumber != 0, \"Bank account number cannot be zero\");\r\n\r\n        supplierCount++;\r\n        suppliers[supplierCount] = Supplier(\r\n            supplierCount,\r\n            _supplierName,\r\n            _supplierNumber,\r\n            SupplierBank(_bankName, _sortCode, _bankAccountNumber)\r\n        );\r\n        activeSupplierIds.push(supplierCount);\r\n\r\n        emit SupplierAdded(supplierCount);\r\n    }\r\n\r\n    // Function to get all supplier details\r\n    function getAllSuppliersDetails()\r\n        external\r\n        view\r\n        returns (Supplier[] memory)\r\n    {\r\n        Supplier[] memory allSuppliers = new Supplier[](supplierCount);\r\n        for (uint256 i = 1; i <= supplierCount; i++) {\r\n            allSuppliers[i - 1] = suppliers[i];\r\n        }\r\n        return allSuppliers;\r\n    }\r\n\r\n    // Function to update supplier details\r\n    function updateSupplier(\r\n        uint256 _supplierId,\r\n        string memory _newName,\r\n        string memory _newNumber,\r\n        string memory _newBankName,\r\n        string memory _newSortCode,\r\n        uint256 _newAccountNumber\r\n    ) external {\r\n        require(\r\n            _supplierId <= supplierCount && _supplierId > 0,\r\n            \"Invalid supplier ID\"\r\n        );\r\n        Supplier storage supplier = suppliers[_supplierId];\r\n        supplier.supplierName = _newName;\r\n        supplier.supplierNumber = _newNumber;\r\n        supplier.supplierBank.bankName = _newBankName;\r\n        supplier.supplierBank.sortCode = _newSortCode;\r\n        supplier.supplierBank.accountNumber = _newAccountNumber;\r\n        emit SupplierUpdated(_supplierId);\r\n    }\r\n\r\n    // Function to delete a supplier\r\n    function deleteSupplier(uint256 _supplierId) external {\r\n        require(\r\n            _supplierId <= supplierCount && _supplierId > 0,\r\n            \"Invalid supplier ID\"\r\n        );\r\n        delete suppliers[_supplierId];\r\n        emit SupplierDeleted(_supplierId);\r\n\r\n        // Remove the supplier ID from activeSupplierIds array\r\n        for (uint256 i = 0; i < activeSupplierIds.length; i++) {\r\n            if (activeSupplierIds[i] == _supplierId) {\r\n                activeSupplierIds[i] = activeSupplierIds[\r\n                    activeSupplierIds.length - 1\r\n                ];\r\n                activeSupplierIds.pop();\r\n                break;\r\n            }\r\n        }\r\n    }\r\n\r\n    // Function to get user bank details\r\n    function getUserBankDetails(\r\n        uint256 _user\r\n    ) external view returns (Bank memory) {\r\n        return userBankDetails[_user];\r\n    }\r\n\r\n    // Function to add user bank details\r\n    function addUserBankDetails(\r\n        string memory _bankName,\r\n        uint256 _bankAccountNumber,\r\n        uint256 _backupAmount\r\n    ) external {\r\n        require(bytes(_bankName).length > 0, \"Bank name cannot be empty\");\r\n        require(_bankAccountNumber != 0, \"Bank account number cannot be zero\");\r\n        require(_backupAmount != 0, \"Backup amount cannot be zero\");\r\n        require(\r\n            userBankDetails[bankCount].id == 0,\r\n            \"Bank details already added\"\r\n        );\r\n\r\n        bankCount++;\r\n        userBankDetails[bankCount] = Bank(\r\n            bankCount,\r\n            _bankName,\r\n            _bankAccountNumber,\r\n            _backupAmount\r\n        );\r\n        emit BankAdded(bankCount);\r\n    }\r\n\r\n    // Function to get user bank details\r\n    function getBankDetails() external view returns (Bank[] memory) {\r\n        Bank[] memory allBank = new Bank[](bankCount);\r\n        for (uint256 i = 1; i <= bankCount; i++) {\r\n            allBank[i - 1] = userBankDetails[i];\r\n        }\r\n        return allBank;\r\n    }\r\n\r\n    // Function to view details of a specific product\r\n    function viewBank(\r\n        uint256 _bankId\r\n    )\r\n        external\r\n        view\r\n        returns (string memory bankName, uint256 bankNumber, uint256 bankAmout)\r\n    {\r\n        require(_bankId <= bankCount && _bankId > 0, \"Invalid bank ID\");\r\n        Bank memory bank = userBankDetails[_bankId];\r\n        return (bank.bankName, bank.bankAccountNumber, bank.bankAccountNumber);\r\n    }\r\n\r\n    // Function to update details of a product\r\n    function updateBank(\r\n        uint256 _bankId,\r\n        string memory _newName,\r\n        uint256 _newAccountNumber,\r\n        uint256 _newAmount\r\n    ) external {\r\n        require(_bankId <= bankCount && _bankId > 0, \"Invalid bank ID\");\r\n        Bank storage bank = userBankDetails[_bankId];\r\n        bank.bankName = _newName;\r\n        bank.bankAccountNumber = _newAccountNumber;\r\n        bank.backupAmount = _newAmount;\r\n        emit BankUpdated(_bankId);\r\n    }\r\n\r\n    // Function to delete a product\r\n    function deleteBank(uint256 _bankId) external {\r\n        require(_bankId <= bankCount && _bankId > 0, \"Invalid bank ID\");\r\n        delete userBankDetails[_bankId];\r\n        emit BankDeleted(_bankId);\r\n    }\r\n\r\n    // Function to add a new product\r\n    function addProduct(\r\n        string memory _productName,\r\n        uint256 _productPrice,\r\n        uint256 _productQty\r\n    ) external {\r\n        productCount++;\r\n        products[productCount] = Product(\r\n            productCount,\r\n            _productName,\r\n            _productPrice,\r\n            _productQty\r\n        );\r\n        activeProductIds.push(productCount);\r\n        emit ProductAdded(productCount);\r\n    }\r\n\r\n    // Function to view details of a specific product\r\n    function viewProduct(\r\n        uint256 _productId\r\n    )\r\n        external\r\n        view\r\n        returns (\r\n            string memory productName,\r\n            uint256 productPrice,\r\n            uint256 productQty\r\n        )\r\n    {\r\n        require(\r\n            _productId <= productCount && _productId > 0,\r\n            \"Invalid product ID\"\r\n        );\r\n        Product memory product = products[_productId];\r\n        return (product.productName, product.productPrice, product.productQty);\r\n    }\r\n\r\n    // Function to update details of a product\r\n    function updateProduct(\r\n        uint256 _productId,\r\n        string memory _newName,\r\n        uint256 _newPrice,\r\n        uint256 _newQty\r\n    ) external {\r\n        require(\r\n            _productId <= productCount && _productId > 0,\r\n            \"Invalid product ID\"\r\n        );\r\n        Product storage product = products[_productId];\r\n        product.productName = _newName;\r\n        product.productPrice = _newPrice;\r\n        product.productQty = _newQty;\r\n        emit ProductUpdated(_productId);\r\n    }\r\n\r\n    // Function to delete a product\r\n    function deleteProduct(uint256 _productId) external {\r\n        require(_productId <= productCount && _productId > 0, \"Invalid product ID\");\r\n        delete products[_productId];\r\n        emit ProductDeleted(_productId);\r\n\r\n        // Remove the product ID from activeProductIds array\r\n        for (uint256 i = 0; i < activeProductIds.length; i++) {\r\n            if (activeProductIds[i] == _productId) {\r\n                activeProductIds[i] = activeProductIds[\r\n                    activeProductIds.length - 1\r\n                ];\r\n                activeProductIds.pop();\r\n                break;\r\n            }\r\n        }\r\n    }\r\n\r\n    // Function to view all products\r\n    function viewAllProducts() external view returns (Product[] memory) {\r\n        Product[] memory allProducts = new Product[](productCount);\r\n        for (uint256 i = 1; i <= productCount; i++) {\r\n            allProducts[i - 1] = products[i];\r\n        }\r\n        return allProducts;\r\n    }\r\n\r\n    // Function to place an order\r\n    function placeOrder(\r\n        uint256[] memory _productIds,\r\n        uint256[] memory _productQtyOrder,\r\n        uint256 _supplierId\r\n    ) external {\r\n        require(\r\n            _productIds.length == _productQtyOrder.length,\r\n            \"Length mismatch\"\r\n        );\r\n\r\n        uint256 totalAmount = 0;\r\n        for (uint256 i = 0; i < _productIds.length; i++) {\r\n            require(\r\n                _productIds[i] <= productCount && _productIds[i] > 0,\r\n                \"Invalid product ID\"\r\n            );\r\n            totalAmount += products[_productIds[i]].productPrice * _productQtyOrder[i];\r\n        }\r\n\r\n        orderCount++;\r\n        uint256 orderNo = orderCount; // Use sequential order number\r\n        \r\n        uint256[] memory productIds = new uint256[](_productIds.length);\r\n        uint256[] memory productQtys = new uint256[](_productQtyOrder.length);\r\n\r\n        for (uint256 i = 0; i < _productIds.length; i++) {\r\n            productIds[i] = _productIds[i];\r\n            productQtys[i] = _productQtyOrder[i];\r\n        }\r\n        userOrders[msg.sender].push(Order(\r\n            orderNo,\r\n            block.timestamp,\r\n            totalAmount,\r\n            \"placed\",\r\n            _supplierId, // Placeholder for supplier ID, to be updated later\r\n            productIds,\r\n            productQtys,\r\n            false\r\n        ));\r\n\r\n        emit OrderPlaced(orderNo, msg.sender);\r\n    }\r\n\r\n    // Function to retrieve order numbers for a user\r\n    function getPlacedOrderNumbers(address _user) external view returns (uint256[] memory) {\r\n        Order[] storage orders = userOrders[_user];\r\n        uint256[] memory orderNumbers = new uint256[](orders.length);\r\n        for (uint256 i = 0; i < orders.length; i++) {\r\n            orderNumbers[i] = orders[i].orderNo;\r\n        }\r\n        return orderNumbers;\r\n    }\r\n\r\n    // Function to retrieve detailed order information by order number\r\n    function getOrderDetails(address _user, uint256 _orderNo) external view returns (\r\n        uint256 orderNo,\r\n        uint256 orderDate,\r\n        uint256 orderTotalAmount,\r\n        string memory orderStatus,\r\n        uint256 supplierId,\r\n        uint256[] memory productIds,\r\n        uint256[] memory productQtys\r\n    ) {\r\n        Order[] storage orders = userOrders[_user];\r\n        for (uint256 i = 0; i < orders.length; i++) {\r\n            if (orders[i].orderNo == _orderNo) {\r\n                Order storage order = orders[i];\r\n                return (\r\n                    order.orderNo,\r\n                    order.orderDate,\r\n                    order.orderTotalAmount,\r\n                    order.orderStatus,\r\n                    order.supplierId,\r\n                    order.productIds,\r\n                    order.productQtys\r\n                );\r\n            }\r\n        }\r\n        revert(\"Order not found\");\r\n    }\r\n\r\n    function compareStrings(\r\n        string memory a,\r\n        string memory b\r\n    ) public pure returns (bool) {\r\n        return keccak256(abi.encodePacked(a)) == keccak256(abi.encodePacked(b));\r\n    }\r\n\r\n    event LogDebugMessage(string message);\r\n    event LogOrderStatus(string message);\r\n    // Function to mark an order as received and update product quantities\r\n    function receiveOrder(uint256 _orderNo, OrderDetail[] memory _receivedProducts) external {\r\n        Bank memory userBank;\r\n        bool bankFound = false;\r\n        uint256 userBankDetailsIndex=1;\r\n        for (uint256 i = 1; i <= bankCount; i++) {\r\n            if (bytes(userBankDetails[i].bankName).length != 0) {\r\n                userBank = userBankDetails[i];\r\n                userBankDetailsIndex = i;\r\n                bankFound = true;\r\n                break;\r\n            }\r\n        }\r\n       \r\n        require(bankFound, \"No bank details found\");\r\n\r\n        Order[] storage orders = userOrders[msg.sender];\r\n        bool orderFound = false;\r\n        for (uint256 i = 0; i < orders.length; i++) {\r\n             emit LogDebugMessage(\"Stage 1\");\r\n            if (orders[i].orderNo == _orderNo && !compareStrings(orders[i].orderStatus, \"received\")) {\r\n                emit LogDebugMessage(\"Stage 2\");\r\n                uint256 totalAmount = 0;\r\n                require(_receivedProducts.length == orders[i].productIds.length, \"Received product count does not match order\");\r\n                \r\n                \r\n                emit LogDebugMessage(\"Stage 3\");\r\n\r\n                for (uint256 j = 0; j < _receivedProducts.length; j++) {\r\n                    emit LogDebugMessage(\"Stage 4\");\r\n                    require(_receivedProducts[j].productQtyReceived <= orders[i].productQtys[j], \"Received quantity exceeds ordered quantity\");\r\n\r\n                    totalAmount += _receivedProducts[j].productQtyReceived * _receivedProducts[j].productPrice;\r\n\r\n                    products[_receivedProducts[j].productId].productQty += _receivedProducts[j].productQtyReceived;\r\n                }\r\n                \r\n                emit LogOrderStatus(orders[i].orderStatus);\r\n                \r\n                orders[i].isReceived = true;\r\n                orders[i].orderStatus = \"received\";\r\n                orders[i].orderTotalAmount = totalAmount;\r\n                emit LogOrderStatus(orders[i].orderStatus);\r\n\r\n                orderFound = true;\r\n                break;\r\n            }\r\n        }\r\n        emit LogDebugMessage(\"Stage 6 test\");\r\n        // Automatically pay the supplier\r\n        for (uint256 i = 0; i < orders.length; i++) {\r\n            if (orders[i].orderNo == _orderNo && compareStrings(orders[i].orderStatus, \"received\")) {\r\n                uint256 totalAmount = orders[i].orderTotalAmount;\r\n                emit LogDebugMessage(\"Stage 6\");\r\n                //uint256 supplierId = orders[i].supplierId;\r\n\r\n                //SupplierBank storage supplierBank = supplierBankDetails[supplierId];\r\n\r\n                require(userBank.backupAmount > totalAmount, \"Insufficient balance\");\r\n                \r\n                // Update user's bank balance\r\n                userBank.backupAmount -= totalAmount;\r\n\r\n                // Update user's bank details in the mapping\r\n                userBankDetails[userBankDetailsIndex] = userBank;\r\n                \r\n                break;\r\n            }\r\n            emit LogDebugMessage(\"Stage 7\");\r\n        }\r\n        require(orderFound, \"Order not found or already received\");\r\n    }\r\n}",
  "sourcePath": "G:\\Ravensbourne\\SEM-2\\WEB3-BLOCKCHAIN\\react\\orderManagementBackend\\contracts\\InventoryPayment.sol",
  "compiler": {
    "name": "solc",
    "version": "0.8.21+commit.d9974bed.Emscripten.clang"
  },
  "schemaVersion": "3.4.16",
  "updatedAt": "2024-04-07T07:04:28.140Z",
  "networkType": "ethereum",
  "devdoc": {
    "kind": "dev",
    "methods": {},
    "version": 1
  },
  "userdoc": {
    "kind": "user",
    "methods": {},
    "version": 1
  }
}